:020000040800F2
:10000000980F0020350B00086905000877050008E7
:100010007505000873050008710500080000000060
:100020000000000000000000000000006F05000854
:100030006D050008000000006B050008570500086A
:100040007905000879050008790500087905000898
:100050007905000879050008790500087905000888
:100060007905000879050008790500087905000878
:100070007905000879050008790500087905000868
:100080007905000879050008790500087905000858
:100090007905000879050008790500087905000848
:1000A0007905000879050008790500087905000838
:1000B0007905000879050008790500087905000828
:1000C0007905000879050008790500087905000818
:1000D0007905000879050008790500087905000808
:1000E00079050008790500087905000879050008F8
:1000F00079050008790500087905000879050008E8
:1001000079050008790500087905000879050008D7
:1001100079050008790500087905000879050008C7
:1001200079050008790500087905000879050008B7
:1001300079050008790500087905000879050008A7
:100140007905000879050008790500087905000897
:100150007905000879050008790500087905000887
:100160007905000879050008790500087905000877
:100170007905000879050008790500087905000867
:1001800079050008790500080B4A136893B11978BE
:1001900081B1D988928891420CD15B7843B9074BE1
:1001A0001B78DBB213F0010F14BF0320002070474F
:1001B0000123F7E7092070472400002000000020F9
:1001C000C3690239023B8B4283BF8378006B01FB1A
:1001D00003000020704770B503460C1F8618F51AFF
:1001E000032D0CD893089C002144013C20446FF05F
:1001F000030404FB03230B44994205D170BD54F85A
:10020000045F43F8045BEAE711F8012B00F8012FC3
:10021000F2E70C4BDA68D1030DD4DA68D2060CD4BD
:10022000DA6812F0EF0F0AD1DB6813F0020F14BF87
:1002300007200820704701207047052070470620DE
:10024000704700BF003C024007B508238DF8073017
:10025000FFF7DFFF8DF807009DF80730012BF7D07F
:100260009DF8070003B05DF804FB70B505460E4627
:10027000FFF7EAFF082813D10A4C236923F44073DF
:100280002361236943F400732361236943F001036D
:1002900023612E60FFF7D8FF236923F00103236158
:1002A00070BD00BF003C02402DE9F0430D68002204
:1002B0000126032406FA02FE3EEA05033DD157005B
:1002C000D0F800C004FA07F3DB430CEA030CC0F8D3
:1002D00000C091F804C0D0F800900CFA07F80CF1B7
:1002E000FF3C48EA0908BCF1010FC0F8008017D8AC
:1002F000D0F808C003EA0C0383604B79D0F808C03B
:10030000BB4043EA0C038360436823EA0E03436067
:100310008B79D0F804C093409BB243EA0C0343604E
:10032000C36804FA07FC23EA0C03C360CB79D0F856
:100330000CC0BB4043EA0C03C3600132102AB9D1A0
:10034000BDE8F083064B1A4619898907FCD580B2AF
:1003500098811389DB07FCD59089C0B2704700BF34
:1003600000380040FF20EDE770B5194C1422054617
:100370000E46C4F82422FFF7F5FFFF2804D1D4F875
:1003800024020028F7D170BDFE281FD104362C1D91
:100390003544FF20FFF7D6FF04F8040CFF20FFF7D9
:1003A000D1FF04F8030CFF20FFF7CCFF04F8020C88
:1003B000FF20FFF7C7FF043404F8050CAC42E8D176
:1003C000FFF7D0FFFFF7CEFF0120DCE70020DAE7E0
:1003D00024000020024B4FF480521A83C2E700BF72
:1003E0000004024010B5084CC4F82802FFF7BAFF19
:1003F000FFF7B8FFFF2804D0D4F828020028F7D16F
:1004000010BD0120FCE700BF24000020020638B523
:1004100004460D4607D500213720FFF7F7FF0128D6
:1004200035D804F07F04FFF7D5FF1A4B4FF4805204
:100430005A833220FFF7D6FF30B344F04000FFF775
:1004400081FF280EFFF77EFFC5F30740FFF77AFF15
:10045000C5F30720FFF776FFE8B2FFF773FFBCB1E3
:10046000082C14BF01208720FFF76CFF0C2C01D152
:10047000FFF778FF0A24FFF775FF030607D5013C55
:1004800014F0FF04F7D102E0FFF7A4FFFF2038BD0E
:100490009520E9E70004024038B50D461C46114698
:1004A000A0BB9BB31B4B1B78DA0731D41A4B93F8D4
:1004B0002C321B0758BF4902012C11D11120FFF724
:1004C000A5FF38B94FF400712846FFF74DFFB0FA89
:1004D00080F46409FFF77EFF201C18BF012038BD9F
:1004E0001220FFF793FF0028F4D14FF40071284643
:1004F000FFF73AFF28B1013C14F0FF0405F5007541
:10050000F3D100210C20FFF781FFE3E70420E6E7A9
:100510000320E4E70000002024000020C3095A0063
:10052000134403EBC30383EA4000C0B2704770B5C5
:100530004B1E02EB00120F31151D184612F8014B2D
:1005400010F8016FAA4284EA06040470F6D104335D
:100550008B42F1D170BD034AD2F83032013BC2F870
:100560003032704724000020704770477047704752
:10057000FEE7FEE7FEE7FEE7FEE738B50D4600289A
:100580003AD1204B1978C80738D41B78590737D48B
:100590001D4B93F82C321B0758BF520211461820EE
:1005A000FFF734FF20B10124FFF714FF204638BDC8
:1005B0003220FFF717FF0028F5D0FE20FFF7C2FE1C
:1005C000AC1C05F2022514F8020CFFF7BBFE023446
:1005D00014F8030CFFF7B6FEA542F4D1FF20FFF795
:1005E000B1FEFF20FFF7AEFEFFF7BCFE00F01F00DC
:1005F000441F18BF0124D7E70424D7E70324D5E715
:100600000224D3E70000002024000020F8B5456B49
:1006100000F1380704462A4639464078FFF7ADFF17
:10062000A8B9A36A20719D4201D20020F8BD226AB8
:1006300013449D42F9D2E678012EF6D9236A6078F8
:100640001D442A463946FFF798FF013EF4E7012092
:10065000ECE738B5436B8B4204460D4612D0037964
:100660004BB901232A4604F138016078FFF714FFE3
:1006700030B1012038BDFFF7C9FF0028F9D1F0E7FC
:100680006563F7E70020F5E70129F8B507460C4652
:100690004BD9C3698B4248D90378022B29D0032B4D
:1006A00034D0012B07D101EB5106816A01EB5621B1
:1006B000FFF7CFFF10B14FF0FF3019E0C6F308038A
:1006C000B96A3B44013601EB5621384693F838505D
:1006D000FFF7BFFF0028EED1C6F308063E44E3074C
:1006E00096F8380045EA00204CBF0009C0F30B0023
:1006F000F8BD816A01EB1421FFF7ABFF0028DAD1C6
:10070000660006F4FF763E44308FF1E7816A01EB24
:10071000D411FFF79EFF0028CDD1A40004F4FE748D
:100720003C44A06B20F07040E2E70120E0E72DE9B7
:10073000F74F554C00230546C4F83434FFF724FD29
:100740000646002854D1A3791F0623D4D80740F1C8
:100750009880D4E90273DF1BAF4228BF2F4604F50F
:100760000D7904F1240B002F42D0A268C2F30803D4
:10077000002B77D120688378013B03EA522313F0E2
:10078000FF0314D142B9206901280BD8A37963F083
:100790007F03A37102262BE061690193FFF774FFC9
:1007A000019BF1E7411C01D1A3791DE06061D4F800
:1007B00000A0616901935046FFF702FD019B0028EC
:1007C000E4D07D0A00EB030830D09AF802209AF8B2
:1007D00001005919914288BFD51AEBB242464946E9
:1007E000FFF75AFEA37938B163F07F03A3710126A6
:1007F000304603B0BDE8F08F5A060BD5A069A0EBD8
:100800000800854206D94FF40072594609EB402092
:10081000FFF7E1FC6D02A3682B44A360D4F83434E5
:100820002B44A944C4F834347F1B9CE7A26990454B
:1008300016D0A3795B060AD559469AF80100FFF74E
:100840009CFEA3790028CFD123F04003A371206838
:100850000123424659464078FFF71EFE0028A3D1E7
:10086000C4F81880A168C1F30801C1F50075BD4244
:1008700028BF3D4624312A4621444846FFF7ABFCB9
:10088000C9E70726B4E700BF240000202DE9F04F98
:100890008F4B93B003930C3B0B9002931C1F8D4B1B
:1008A0000B9AE31A9A4202D813B0BDE8F08F1022D7
:1008B00021460EA801F086FB874A21460A20FFF751
:1008C00036FE09230493627A637B627362796272F3
:1008D00062786271A27A6370A378A270A27BA3721D
:1008E000A379A271E279A373E378E270E27AE2710C
:1008F000E27BE272E373A046002318F823207749D5
:100900000A4492F84E2508F823200133042BF4D131
:10091000029B08F101084345EED16F4A0498214635
:10092000FFF705FE2646337800930098737801930D
:10093000FFF7F4FD0590FFF7F1FD0690FFF7EEFDE0
:100940000D900198B57896F803B0FFF7E7FD0146E2
:10095000FFF7E4FD0790FFF7E1FD82462846FFF729
:10096000DDFD0C90FFF7DAFD0890FFF7D7FD81461B
:100970005846FFF7D3FD0990FFF7D0FD0A90FFF727
:10098000CDFDDDE9053283EA020C0D9B089A0A9F32
:1009900083EA0C0C81EA0C0C8AEA0C0C82EA0C0C3F
:1009A00089EA0C0C019A80EA0C0C82EA0C0C079A7A
:1009B000594051400C9A8AEA0101514089EA0101EB
:1009C0007940009F4140794069408BEA0101717094
:1009D000069959408AEA01014A4008994A40099912
:1009E00089EA020285EA0C0C8BEA0C0C4A4086F874
:1009F00000C0424001997A404A408BEA020B059AB6
:100A000086F802B05340079A53408AEA030A099BCA
:100A100089EA0A0983EA09090A9B83EA090980EA43
:100A20000900784048406840039BF0700436B342A8
:100A30007FF479AF049B013B13F0FF0304937FF431
:100A400042AF627A637B62736279627262786271CA
:100A5000A27A6370A378A270A27BA372A379A27119
:100A6000E279A373E378E270E27AE271E27BE27208
:100A7000E3732246002312F823101848014491F82A
:100A80004E1502F823100133042BF4D101329045A6
:100A9000F0D121460020104AFFF749FD1049631E9E
:100AA00004F10F0013F8012F11F8015F984282EA58
:100AB00005021A70F6D110220EA90A4801F082FA36
:100AC000039B10330393029B103310340293E6E62A
:100AD000680200205802002064040020F82000086A
:100AE0001305002014050020FEE710467047002083
:100AF000704700207047012070474FF400534B604F
:100B0000002070474FF0FF3070474FF0FF307047C4
:100B1000064BD3F80015024611B90549C3F8001574
:100B2000D3F800050244C3F80025704724000020D4
:100B30009807002008B50A4A0A4B0B498B420AD392
:100B40000A480B494FF000028842B8BF40F8042B16
:100B5000FADB00F0CBFE52F8040F43F8040BEDE78C
:100B60007A28000800000020240000202400002033
:100B700098070020024600F10B010020C30143EA60
:100B8000500312F8010B50FA83F38A42D8B2F5D120
:100B9000704738B50546FFF757FB08281FD1104CA2
:100BA000236923F440732361236943F400732361B1
:100BB000236923F0F8032361206940F002002843F1
:100BC0002061236943F480332361FFF73DFB2369F0
:100BD00023F002032361236923F0F803236138BD66
:100BE000003C0240044B1A69002ABFBF034A5A6006
:100BF00002F188325A607047003C02402301674589
:100C000010B50A46044600F1380101234078FFF789
:100C100043FCA0B9B4F836224AF655239A4210D1C3
:100C2000D4F86E30084A23F07F43934206D0D4F8BC
:100C30008A0020F07F40801A18BF012010BD0320D9
:100C4000FCE70220FAE700BF4641540008B5FFF771
:100C5000C9FF0820FFF79DFF024A136943F00043D4
:100C6000136108BD003C024008B5FFF7BBFF054912
:100C70000548FFF7FAFA054A136943F00043136188
:100C800008BD00BF4C52544300400008003C0240E5
:100C9000BFF34F8F0449054BCA6802F4E062134367
:100CA000CB60BFF34F8FFEE700ED00E00400FA05D4
:100CB0000129F8B505460C46164660D9C3698B4232
:100CC0005DD90378022B3AD0032B45D0012B54D1A8
:100CD00001EB5107816A01EB5721FFF7BAFC18BB02
:100CE000C7F308032B4414F001041FBF93F8382006
:100CF00002F00F01320102F0F00214BF0A43F2B217
:100D000083F83820A96A013701232B7101EB5721A1
:100D10002846FFF79EFC38B9C7F308072F4434B1C3
:100D2000C6F3071687F8386001232B71F8BD97F8D2
:100D30003830C6F3032623F00F031E43F2E7816A1F
:100D400001EB1421FFF785FC0028EDD1640004F4C9
:100D5000FF742C442687E7E7816A01EBD411FFF783
:100D600078FC0028E0D1A40004F4FE7438342B5938
:100D700003F070431E432E51D6E70220D4E7022031
:100D8000D4E72DE9F047C7880137BFB2054688464A
:100D900017B90420BDE8F0870369002BF9D017F0DC
:100DA0000F0907D1E968006801332B6151B9038944
:100DB000BB42EED92B68EF80383303EB49136B61EC
:100DC0000020E7E78378013B13EA1713F2D1FFF71E
:100DD0005BFC0128044601D80220DBE701307CD00F
:100DE0002E68F369A34267D8B8F1000FD1D0D5F8C7
:100DF0000CA0BAF1000F12D1D6F80C80B8F1000F98
:100E000019D0434598BF4FF001084446F3690134B7
:100E10009C4214D3B8F1010F10D80720BAE751460D
:100E20003046FFF731FC01280446D5D9F3699842D2
:100E300024D3D046E9E74FF00108E6E70224214633
:100E40003046FFF721FC30B1411C46D00128C3D009
:100E5000A045DBD1E1E76FF0704221463046FFF755
:100E600027FF002836D1BAF1000F2CD13369F46086
:100E70005A1C34D1002CD0D0012CADD0631C2CD006
:100E80002868037983BB2B68002103F1380203F53E
:100E90000E7393422DD12A6821461046FFF790F930
:100EA000002650634FF0010828688378F2B293421D
:100EB00022D8436B9B1A4363EC6021462868FFF7F6
:100EC0007FF9286176E7224651463046FFF7F0FE6B
:100ED0000028CBD001287FF47FAF01205AE7013BE7
:100EE000336101237371C5E7FFF790FB0028F4D14C
:100EF000C9E702F8011BCCE780F80480FFF786FB06
:100F000001360028E9D12A68536B01335363CBE7DC
:100F10002DE9F84F4FF0FF08064644463169306826
:100F2000FFF797FB8146002840F0888075692B7891
:100F3000002B00F08D80E97AE52B01F03F023FD0D5
:100F4000080721D50F2A3BD1D6F81CE0BEF1000FCF
:100F50006CD0590632D503F0BF04F38895F80D80A4
:100F600033846B7B43452BD195F8009029F04000EA
:100F7000431E0D205843002201233749515C695A12
:100F8000002B60D000231EE00F2ADDD024B92846B4
:100F9000FFF7F0FD404551D04FF6FF733384B3693E
:100FA000DA7AD2070CD403F10B00834246D015F84D
:100FB000011B13F8012B9142F7D001E0A342D0D0DE
:100FC000FF2433E00133254F37F813A04FEA430CD9
:100FD000BAF1000F05D05145F4D11F4B9C44BCF829
:100FE000EE111328ECD800F1010B3EF81030002070
:100FF0001A4F37F810A04FEA400CBAF1000F05D095
:1010000053451ED1144B9C44BCF8EE319942D7D1C4
:10101000584601320D2AB0D119F0400F04D01BB14F
:101020003EF81030002BCBD1013CE4B20021304619
:10103000FFF7A7FE814600283FF470AF4846BDE8A1
:10104000F88F0130D4E74FF6FF77B942E1D0B7E728
:101050004FF00409F2E700BFF8200008062100085D
:1010600070B505460C46E9808168012901D102204E
:1010700070BD0368DA698A42F9D9B1B91A78032ACE
:1010800001D1D96A89B90022EA601A89A242EED94F
:10109000DB6A03EB14132B612B6804F00F04383365
:1010A00003EB44146C610020E2E79E783601B44201
:1010B000286806D2E960FFF783F800EB1410286176
:1010C000EAE7FFF7E1FA431C014608D00128CED930
:1010D0002B68DB698342CAD9A41BA4B2E7E70120CD
:1010E000C6E70129F8B504460D4601D80220F8BD2F
:1010F000C3698B42FAD90127E3699D4205D229468B
:101100002046FFF7C1FA064608B90020EFE701289C
:10111000ECD0411C0ED0002229462046FFF7C8FD26
:101120000028E4D123695A1C1EBF01332361677173
:101130003546E1E70120DAE72DE9F74F0B782F2B51
:1011400004460D4601D05C2B32D101350023A3604B
:101150002B781F2B2FD9DFF8A0822B782F2B294635
:1011600005F10105F9D05C2BF7D0E66901F1FF3CF0
:10117000B71E00221CF8010F83B21F2B02F10105DC
:1011800026D92F2B24D05C2B22D0152D0ED07F2BCF
:1011900006D908EB4000B0F8CE323BB17F2B13D814
:1011A000934810F8012F7AB19A42FAD1062008E04C
:1011B00003689B69CBE700212046FFF751FF00231E
:1011C000636103B0BDE8F08F27F8023F2A46D1E7FC
:1011D0001F2B8CBF00230423012A0D442DD13188FD
:1011E0002E292FD1002126F81210A0698A4294BF1F
:1011F00020262E26465401310B29F6D1A26943F050
:101200002003D37200212046FFF72AFF10B92046A1
:10121000FFF77EFEA369DB7A002800F0BF80042878
:10122000CFD1990603F0040240F1B4800023A360FB
:101230006361002A91D00020C3E7022A02D171889D
:101240002E29CCD006EB4201002AAFD031F8020D96
:10125000202802D02E2840F0B480013AF4E701F8AB
:10126000010B8C45FBD1002036F8101020291FD02F
:101270002E291DD008B143F00303394631F8027D11
:101280002E2F01D0013AF9D14FF0000E4FF0080C8B
:10129000714600F1010A36F81000D0B1202803D0C1
:1012A0002E2807D1924509D043F003035046F0E7BA
:1012B0000130D9E7E64505D292453AD1BCF10B0F92
:1012C0002FD102E0BCF10B0F26D143F003034FF006
:1012D0000B0CA2691078E52804BF05201070BCF142
:1012E000080F04BF8900C9B201F00C020C2A03D018
:1012F00001F00300032801D143F00203980709D449
:1013000001F00301012908BF43F01003042A08BFBC
:1013100043F00803A26974E7924502D043F0030347
:10132000D7D88900C9B292464FF00B0C4FF0080E87
:10133000BCE77F281BD94FF000091FFA89F70197F6
:101340002C4F37F819B0834506D009F10109B9F1DE
:10135000800FF2D1CDF80490019F803717F0FF077E
:1013600043F002030AD0474497F84E0430B1DFF847
:101370008C9019F8017F77B38742FAD143F00303C9
:101380005F20A76907F80E000EF1010E8EE741F00D
:101390000201F6E7002A08BF052012E75A073FF5C9
:1013A0004AAF6269D37ADB0609D52168538B097885
:1013B000032904BF928A43EA0243A360CDE60520D5
:1013C000FFE6002126F81210A16906EB420701F1A1
:1013D0000B0C202045E7A0F14107192FD7D9A0F128
:1013E0006107192F9EBF203841F0010180B2C8E784
:1013F00060280008C6240008F820000869280008B2
:1014000010B50378032B044623D143790BB300F1C5
:101410003801002343630A4600F50E7082422DD145
:101420004AF65523A4F83632194BA36303F1FF5350
:1014300003F500532033C4F81C322369C4F820326A
:10144000E368C4F8243262696078FFF796F80023F5
:1014500063716378CBB90F4B1C7814F0010414D17D
:101460000D4B4FF480525A833220FEF7BBFF40B140
:10147000FEF7B0FFFEF7AEFF204610BD02F8013BBD
:10148000CCE7FEF7A7FF0124F4E70124F4E700BF4F
:101490005252614100000020000402402DE9F04F4B
:1014A000036815461A78303A092A8BB01BD90023F5
:1014B0000B60A94FD7F83844002C00F00C820C6068
:1014C0002378EBB16378CBB9A44B1878C0B2C607C8
:1014D00016D4002D00F0018210F0040000D00A2084
:1014E0000BB0BDE8F08F5C783A2CE0D1023303609A
:1014F00000230B60002ADCD00B20F1E70120E6E797
:1015000000232380954B93F800B01BF0020B984604
:1015100015D01B78DBB2D80700F1E1810DB1590776
:10152000DDD400212046FFF76BFB012840F0C0818D
:1015300094F8FA31002B40F019810D20D0E7DFF844
:101540002892874ED9F8403043F48043C9F84030A0
:10155000D9F8303043F00203C9F8303001224FF49B
:10156000805A032303A930468DF8102001928DF88C
:101570001130CDF80CA08DF812B08DF813B0FEF735
:1015800093FE736A019A23F470037362736A43F4DF
:10159000A0037362736A23F070637362736A43F02B
:1015A000A0637362736A23F070437362736A43F0DB
:1015B000A043736202238DF810308DF8113003A917
:1015C0004FF460438DF8132003938DF812B0FEF7AB
:1015D0006BFE644B1A8822F040021204120C1A802F
:1015E000D9F8202042F48042C9F82020D9F82020E0
:1015F00022F48042C9F820201A8802F4415242F4B1
:101600004F721A809A8B22F400621204120C9A8391
:10161000BDF824201A821A8842F040021A804FF046
:101620000A09A6F818A0A6F818A0FF2009F1FF39AA
:10163000FEF788FE19F0FF09F7D10123494A87F820
:101640003C34138843F0380313804FF48053738382
:101650000A26013EFEF786FE16F0FF06F9D1314656
:101660003046FEF7D3FE0128814670D164234FF443
:10167000D5710820C7F82432FEF7C8FE012849D1E9
:101680000DF11409FEF76EFE09F806000136042E6E
:10169000F8D19DF81630012B59D19DF81730AA2B9F
:1016A00055D1D7F8243233B14FF08041A920FEF74D
:1016B000ADFE0028F5D1D7F82432002B47D0002109
:1016C0003A20FEF7A3FE002841D10646FEF74AFE67
:1016D00009F806000136042EF8D19DF8143013F0F5
:1016E000400F14BF0C26042687F82C62FEF772FE0A
:1016F0007EB398F800301B4A03F0FE0388F80030F0
:1017000013889BB223F0380343F01003138098F83A
:101710000030FFE63146A920FEF778FE022836BFEA
:10172000022601264FF0A909D7F824322BB1002157
:101730004846FEF76BFE0028F6D1D7F8243233B1C5
:101740004FF400711020FEF761FE0028CCD0002677
:10175000CAE787F83C64DAE7240000200000002094
:10176000000402400038004000380240D4F8FE6116
:1017700020463146FFF744FA032800F0B2800028E3
:101780007FF4DBAEB4F84330B3F5007F7FF4D5AE21
:10179000B4F84E2002B9E26D94F8481022624B1E54
:1017A000012BE1703FF6C9AE94F84550A570002DAD
:1017B0003FF4C3AE6B1E2B427FF4BFAEB4F849E0DA
:1017C000A4F808E01EF00F0F7FF4B7AEB4F84B306A
:1017D00003B9A36DB4F846C0BCF1000F3FF4ADAE41
:1017E00051430CEB1E10084498423FF6A6AE1B1A5C
:1017F000B3FBF5F3002B3FF4A0AE40F6F575AB421A
:1018000094BF012502254FF6F578434588BF03258F
:10181000B44402333044032DE3616662C4F828C047
:10182000206347D1BEF1000F7FF487AE616EE162A5
:101830009B0003F2FF13B2EB532FFFF47EAE0023A5
:101840004FF0FF32032DC4E9033224D1B4F86820ED
:10185000637132446261012304F138016078FEF75C
:101860001BFEC0B9B4F836224AF655239A4212D16B
:10187000A26B1D4B9A420ED103F1FF53D4F81C22E8
:1018800003F5005320339A4201BFD4F82432E360B9
:10189000D4F820322361B7F83E342570013300209C
:1018A0009BB2A7F83E34E38060632071A06117E625
:1018B000002661E7BEF1000F3FF43FAE6144022D08
:1018C000E1624FEA43011BBFC91803F001030B4655
:1018D00003EB5103ADE70C2002E6284600E60320A7
:1018E000FEE50120FCE500BF5252614180B51D4C70
:1018F0001D4D236B9EB043F04003236307231593D4
:1019000001238DF8583003238DF859300026022327
:1019100015A928468DF85B308DF85A60FEF7C4FC97
:101920006B6923F007036B61104B1A68104B9A42E6
:101930006B6925D143F004036B616B6923F00103EC
:101940006B61FFF783F972B60A4A0B4B93600B4A3F
:1019500012681B6883F308886B6923F004036B61CA
:101960009047FEE70038024000180240004000089F
:101970004C52544300ED00E0008000080480000851
:1019800043F001036B61236843F001032360A66009
:10199000236823F0847323F480332360BF4B636098
:1019A000236823F480232360E6600196029623686F
:1019B00043F4803323602246236803F40033029308
:1019C000019B01330193029B1BB9019BB3F5A06FEF
:1019D000F2D1136813F4003318BF01230293029B62
:1019E000012B2ED1AE4BAF491A6C42F080521A64D3
:1019F0000A6842F480420A609A689A609A6842F4DF
:101A000000429A609A6842F4A0529A60A64A5A60CC
:101A10001A6842F080721A601A689201FCD5A34AD3
:101A200040F2056111609A6822F003029A609A6898
:101A300042F002029A609A4A936803F00C03082B62
:101A4000FAD19B4B9B4A9A60954A9B4C136B9B48DF
:101A50009B4F43F00203136303238DF85930002397
:101A60008DF8583001238DF85A3002238DF85B3001
:101A700015A94FF400631593FEF716FCB42384F800
:101A80004034EF2384F84134742384F842345623DD
:101A900084F843347A2384F84434872384F8453423
:101AA000C02384F84634F22384F847345A2384F858
:101AB00048348F2384F84934E52384F84A344A2390
:101AC00084F84B34882384F84C34D62384F84D347E
:101AD0001C2384F84E342C2384F84F34042604F558
:101AE000886316F0030F1A7B5D7B987BD97B11D13D
:101AF0003D44384439443A4495F84EC690F84E5621
:101B000091F84E0692F84E1607EB960292F84E2781
:101B10008CEA020293F800C082EA0C021A745A7826
:101B200055409A785D745040DA7898740136514087
:101B30002C2ED97403F10403D3D1102261496248D9
:101B400000F040FAD4F83824002302B1137084F86E
:101B500004355E4BC4F838345D4B08AA03F108061F
:101B6000174618685968154603C50833B3422A4614
:101B7000F7D1186828601EA81B792B71002240F845
:101B80006C7D15A92260FFF789FC002840F00082D7
:101B9000504D03991C950CAE15A81B96FFF7CCFA77
:101BA000A8461A9B002840F0F381002B00F0F0813A
:101BB000DA7AD10600F1EC81159A516BC4E907136A
:101BC0000121A1711078598B2260032808BF988ADF
:101BD000DB69E360D388A38008BF41EA00413E4B44
:101BE00021610025A560A5615A6942F002025A618F
:101BF0005A6922F001025A61FEF7F4FF2B4BF322DF
:101C0000DA601020FEF7C5FF1820FEF7C2FF202083
:101C1000FEF7BFFF2820FEF7BCFF3020FEF7B9FF1C
:101C20003820FEF7B6FF4020FEF7B3FF4820FEF74E
:101C3000B0FF5020FEF7ADFF5820FEF7AAFFE36883
:101C4000C4F868371B4BC4F86C57C4F87037D4F825
:101C50006837D4F86C57A3EB0509B9F5007F80F01D
:101C60008B80AB4210D04846FEF761FD4846FEF738
:101C70000DFE0025D4F86827D4F86C37D31AAB4290
:101C800000F29880C4F86C27134A536923F00203CA
:101C9000536102F51052136920E000BF1030002498
:101CA0000038024000700040042A4007003C024017
:101CB00000ED00E000800008240000200004024045
:101CC000F8200008512800081405002028050020ED
:101CD00071280008600700200018024043F000430C
:101CE0001361FEF751FA20B9A3799A0670D4002344
:101CF00023601EA8012240F8687D3146FFF7CEFB25
:101D000000282FD105AB04993046CDE91238FFF7F2
:101D100013FA38BB129BDB7A9C0623D4119B002B51
:101D200000F08E80DA7A12F0010F18BF07200C9AAB
:101D30005D8B1278032A04BF9A8A45EA024588B966
:101D4000DB7AD8067ED4BDF83640BDF850104FF689
:101D5000FF73994208BF21463046FFF781F90028FA
:101D600000F0E780914B1A68914B9A4200F018817D
:101D7000FEF76CFFFEF78CFF4FF40070FEF7D7FC08
:101D800005F500754FF40070C4F86C57FEF77EFD42
:101D900000256319D4F87097D3F8341248460435F7
:101DA000FEF763FA09F10403B5F5007FC4F8703754
:101DB000EFD14CE76319D4F87097D3F83412484642
:101DC000FEF753FA09F10403C4F87037043551E7FC
:101DD0005D0620680AD5A26976494078FEF7CDFBFA
:101DE000002886D1A37923F04003A371E16920681C
:101DF000FEF72FFC00287FF47CAF236A2568DA7A8F
:101E000042F02002DA72E268DA6122695A83120C27
:101E10009A82694A5882C3F81620A37923F02003D6
:101E2000A37101232B712846FEF7F0FB00287FF4F5
:101E300060AF2846FFF7E4FA00283FF458AF58E7B0
:101E4000062074E7012D8DD9314615A82422FEF70E
:101E5000C2F9022115A81795FFF702F9002881D1D0
:101E60004FF0FF09554F4C4604204FF6FF78199963
:101E700011B9002849D175E71598FEF7EAFB00284B
:101E800043D11A9A1378002B51D0D17AE52B01F067
:101E90003F0147D0082945D00F297FF463AF590689
:101EA0003ED503F0BF04BDF85A3092F80D90ADF85E
:101EB0007430537B4B4535D11378DDF870C003F097
:101EC0003F030D21013B4B434FF0010E0021C85D44
:101ED000105ABEF1000F27D0132B23D82CF8130073
:101EE0008646013301310D29F1D11278520604D50D
:101EF000132B17D800222CF81320013CE4B2002148
:101F000015A8FEF73EFF0028B1D0002319930C9BC3
:101F10009B69AB423FF426AF04287FF423AF12E75E
:101F2000A342C6D0FF24EAE74045DBD0FAE704200D
:101F3000EBE7E5274FF0010810990C98FEF789FBB5
:101F4000014600287FF40EAF119B1F700C9B83F895
:101F50000480BDF83630A34214D30C982DB1294625
:101F6000FFF7BFF800287FF4FDAE0C9C23792BB15E
:101F70002046FEF74BFB00287FF4F4AE2046FFF727
:101F80003FFAEFE63046FEF7FCFE0028D4D0E9E643
:101F9000064B1A680A4B1340B3F1005F7FF4EAAEB8
:101FA000FEF754FEFEF760FEE4E600BF0080000886
:101FB000D03C0020480000200060213EF8200008AE
:101FC0000000FF2F844641EA000313F003036DD1A4
:101FD000403A41D351F8043B40F8043B51F8043BEC
:101FE00040F8043B51F8043B40F8043B51F8043BF3
:101FF00040F8043B51F8043B40F8043B51F8043BE3
:1020000040F8043B51F8043B40F8043B51F8043BD2
:1020100040F8043B51F8043B40F8043B51F8043BC2
:1020200040F8043B51F8043B40F8043B51F8043BB2
:1020300040F8043B51F8043B40F8043B51F8043BA2
:1020400040F8043B51F8043B40F8043B51F8043B92
:1020500040F8043B403ABDD2303211D351F8043B32
:1020600040F8043B51F8043B40F8043B51F8043B72
:1020700040F8043B51F8043B40F8043B103AEDD2E1
:102080000C3205D351F8043B40F8043B043AF9D232
:10209000043208D0D2071CBF11F8013B00F8013B05
:1020A00001D30B8803806046704700BF082A13D312
:1020B0008B078DD010F003038AD0C3F10403D21A2A
:1020C000DB071CBF11F8013B00F8013B80D331F85E
:1020D000023B20F8023B7BE7043AD9D3013A11F8DE
:1020E000013B00F8013BF9D20B7803704B78437049
:1020F0008B7883706046704701030507090E101244
:102100001416181C1E006100620063006400650064
:1021100066006700680069006A006B006C006D0073
:102120006E006F0070007100720073007400750023
:1021300076007700780079007A00A100A200A30061
:10214000A500AC00AF00E000E100E200E300E40025
:10215000E500E600E700E800E900EA00EB00EC003B
:10216000ED00EE00EF00F000F100F200F300F400EB
:10217000F500F600F800F900FA00FB00FC00FD0095
:10218000FE00FF00010103010501070109010B0128
:102190000D010F01110113011501170119011B0197
:1021A0001D011F01210123012501270129012B0107
:1021B0002D012F0131013301350137013A013C0175
:1021C0003E01400142014401460148014B014D01DD
:1021D0004F01510153015501570159015B015D0147
:1021E0005F01610163016501670169016B016D01B7
:1021F0006F0171017301750177017A017C017E0124
:102200009201B103B203B303B403B503B603B7033A
:10221000B803B903BA03BB03BC03BD03BE03BF03CA
:10222000C003C103C303C403C503C603C703C80374
:10223000C903CA03300431043204330434043504BE
:1022400036043704380439043A043B043C043D04A2
:102250003E043F0440044104420443044404450452
:1022600046044704480449044A044B044C044D0402
:102270004E044F04510452045304540455045604AC
:102280005704580459045A045B045C045E045F0458
:10229000702171217221732174217521762177219A
:1022A000782179217A217B217C217D217E217F214A
:1022B00041FF42FF43FF44FF45FF46FF47FF48FF02
:1022C00049FF4AFF4BFF4CFF4DFF4EFF4FFF50FFB2
:1022D00051FF52FF53FF54FF55FF56FF57FF58FF62
:1022E00059FF5AFF000041004200430044004500EE
:1022F00046004700480049004A004B004C004D0092
:102300004E004F0050005100520053005400550041
:1023100056005700580059005A002100E0FFE1FF25
:10232000E5FFE2FFE3FFC000C100C200C300C4003C
:10233000C500C600C700C800C900CA00CB00CC0059
:10234000CD00CE00CF00D000D100D200D300D40009
:10235000D500D600D800D900DA00DB00DC00DD00B3
:10236000DE007801000102010401060108010A01F2
:102370000C010E01100112011401160118011A01BD
:102380001C011E01200122012401260128012A012D
:102390002C012E01300132013401360139013B019B
:1023A0003D013F0141014301450147014A014C0103
:1023B0004E01500152015401560158015A015C016D
:1023C0005E01600162016401660168016A016C01DD
:1023D0006E01700172017401760179017B017D014A
:1023E000910191039203930394039503960397033A
:1023F000980399039A039B039C039D039E039F03E9
:10240000A003A103A303A403A503A603A703A80392
:10241000A903AA03100411041204130414041504DC
:1024200016041704180419041A041B041C041D04C0
:102430001E041F0420042104220423042404250470
:1024400026042704280429042A042B042C042D0420
:102450002E042F04010402040304040405040604EA
:102460000704080409040A040B040C040E040F04F6
:102470006021612162216321642165216621672138
:10248000682169216A216B216C216D216E216F21E8
:1024900021FF22FF23FF24FF25FF26FF27FF28FF20
:1024A00029FF2AFF2BFF2CFF2DFF2EFF2FFF30FFD0
:1024B00031FF32FF33FF34FF35FF36FF37FF38FF80
:1024C00039FF3AFF0000020403041A2053041E20BF
:1024D000262020202120AC203020090439200A04A5
:1024E0000C040B040F045204182019201C201D207A
:1024F0002220132014200000112159043A205A04EC
:102500005C045B045F04A0000E045E040804A400E5
:102510009004A600A7000104A9000404AB00AC00CD
:10252000AD00AE000704B000B100060456049104EB
:10253000B500B600B700510416215404BB0058047E
:102540000504550457041004110412041304140460
:10255000150416041704180419041A041B041C0497
:102560001D041E041F042004210422042304240447
:10257000250426042704280429042A042D042C04F5
:102580002D042E042F0430043104320433043404A7
:10259000350436043704380439043A043B043C0457
:1025A0003D043E043F044004410442044304440407
:1025B000450446044704480449044A044B044C04B7
:1025C0004D044E044F0480818282848586878889E9
:1025D0008A8B8C8D8E8F80919293949596979899F3
:1025E0008A9B8C8D8E8FA0A2A2A3A4A5A6A7A8A922
:1025F000AAABACADAEAFB0B1B2B2A5B5B6B7A8B9E3
:10260000AABBA3BDBDAFC0C1C2C3C4C5C6C7C8C9EC
:10261000CACBCCCDCECFD0D1D2D3D4D5D6D7D8D9A2
:10262000DADBDCDDDEDFC0C1C2C3C4C5C6C7C8C9D2
:10263000CACBCCCDCECFD0D1D2D3D4D5D6D7D8D982
:10264000DADBDCDDDEDF52096AD53036A538BF4083
:10265000A39E81F3D7FB7CE339829B2FFF87348EC7
:102660004344C4DEE9CB547B9432A6C2233DEE4CF6
:10267000950B42FAC34E082EA16628D924B2765B88
:10268000A2496D8BD12572F8F66486689816D4A499
:102690005CCC5D65B6926C704850FDEDB9DA5E15A4
:1026A0004657A78D9D8490D8AB008CBCD30AF7E425
:1026B0005805B8B34506D02C1E8FCA3F0F02C1AFD4
:1026C000BD0301138A6B3A9111414F67DCEA97F21F
:1026D000CFCEF0B4E67396AC7422E7AD3585E2F95F
:1026E00037E81C75DF6E47F11A711D29C5896FB770
:1026F000620EAA18BE1BFC563E4BC6D279209ADB4E
:10270000C0FE78CD5AF41FDDA8338807C731B11257
:1027100010592780EC5F60517FA919B54A0D2DE54E
:102720007A9F93C99CEFA0E03B4DAE2AF5B0C8EB71
:10273000BB3C83539961172B047EBA77D626E16997
:10274000146355210C7D637C777BF26B6FC5300180
:10275000672BFED7AB76CA82C97DFA5947F0ADD454
:10276000A2AF9CA472C0B7FD9326363FF7CC34A528
:10277000E5F171D8311504C723C31896059A0712DD
:1027800080E2EB27B27509832C1A1B6E5AA0523BCC
:10279000D6B329E32F8453D100ED20FCB15B6ACB83
:1027A000BE394A4C58CFD0EFAAFB434D338545F98B
:1027B000027F503C9FA851A3408F929D38F5BCB634
:1027C000DA2110FFF3D2CD0C13EC5F974417C4A7A6
:1027D0007E3D645D197360814FDC222A908846EE4D
:1027E000B814DE5E0BDBE0323A0A4906245CC2D341
:1027F000AC629195E479E7C8376D8DD54EA96C56DA
:10280000F4EA657AAE08BA78252E1CA6B4C6E8DDCF
:10281000741F4BBD8B8A703EB5664803F60E61355A
:1028200057B986C11D9EE1F8981169D98E949B1EF7
:1028300087E9CE5528DF8CA1890DBFE64268419912
:102840002D0FB054BB168D01020408102040801BD0
:1028500036A652B6DC92221507258B761467807D4A
:10286000A7222A3A3C3E3F7C7F002B2C3B3D5B5D00
:0E287000006669726D776172652E62696E0096
:10287E000100000000010203040102030406070820
:10288E000900000000000000000102030406070812
:04289E00090000002D
:04000005080018EDEA
:00000001FF
